:020000040800F2
:1000000000280020AD010008FD010008FD010008E6
:10001000FD010008FD010008FD01000800000000CE
:10002000000000000000000000000000FD010008CA
:10003000FD01000800000000FD010008FD010008AE
:10004000FD010008FD010008FD010008FD01000898
:10005000FD010008FD010008FD010008FD01000888
:10006000FD010008FD010008FD010008FD01000878
:10007000FD010008FD010008FD010008FD01000868
:10008000FD010008FD010008FD010008FD01000858
:10009000FD010008FD010008FD010008FD01000848
:1000A000FD010008FD010008FD010008FD01000838
:1000B000FD010008FD010008FD010008FD01000828
:1000C000FD010008FD010008FD010008FD01000818
:1000D000FD010008FD010008FD010008FD01000808
:1000E000FD010008FD01000800000000FD010008FE
:1000F000FD010008FD010008FD010008FD010008E8
:10010000FD010008FD010008FD010008FD010008D7
:10011000FD010008FD010008FD010008FD010008C7
:10012000FD010008FD010008FD010008FD010008B7
:1001300010B5054C237833B9044B13B10448AFF321
:1001400000800123237010BD00000020000000008B
:100150004802000808B5034B1BB103490348AFF33D
:10016000008008BD000000000400002048020008D4
:100170000B480C4A01680C4B41F004010160116806
:1001800021F470011160116841F4001111601A68C6
:1001900042F400521A601A6822F400521A60F6E71C
:1001A00018100240040801400C0801400D48854623
:1001B000AFF300800C480D490D4A002302E0D458EB
:1001C000C4500433C4188C42F9D30A4A0A4C0023A1
:1001D00001E013600432A242FBD300F011F8FFF7F4
:1001E000C7FFFEE7002800200000002000000020DC
:1001F00068020008000000201C000020FEE700004C
:1002000070B500250C4E0D4CA41BA410A54209D1BD
:1002100000F01AF800250A4E0A4CA41BA410A542AF
:1002200005D170BD56F8253098470135EEE756F8F0
:10023000253098470135F2E76002000860020008A7
:100240006002000864020008F8B500BFF8BC08BCF2
:100250009E467047F8B500BFF8BC08BC9E46704784
:04026000550100083C
:04026400310100085C
:04000005080001AD41
:00000001FF
