S00C00006C6162312E73726563B8
S11300000C942A000C9434000C9434000C943400A6
S11300100C9434000C9434000C9434000C9434008C
S11300200C9434000C9434000C9434000C9434007C
S11300300C9434000C9434000C9434000C9434006C
S11300400C9434000C9434000C9434000C9434005C
S11300500C94340011241FBECFE5D8E0DEBFCDBF21
S11300600E945C000C9470000C940000CF93DF930A
S113007000D000D0CDB7DEB71A82198212C01C821C
S11300801B8205C08B819C8101969C838B838B8111
S11300909C8180329E44B4F389819A8101969A832B
S11300A0898389819A810A9754F30F900F900F9056
S11300B00F90DF91CF91089580EF81BB12BA80E257
S11300C082BB0E94360080E482BB0E94360080E836
S11300D082BB0E94360080E182BB0E943600EFCFD3
S10700E0F894FFCFBE
S9030000FC
